{
  "contractName": "Shares",
  "abi": [
    {
      "constant": true,
      "inputs": [],
      "name": "Count",
      "outputs": [
        {
          "name": "",
          "type": "uint256"
        }
      ],
      "payable": false,
      "stateMutability": "view",
      "type": "function"
    },
    {
      "constant": true,
      "inputs": [
        {
          "name": "",
          "type": "address"
        }
      ],
      "name": "buyers",
      "outputs": [
        {
          "name": "id",
          "type": "uint256"
        },
        {
          "name": "Share_Name",
          "type": "string"
        },
        {
          "name": "Share_Code",
          "type": "string"
        },
        {
          "name": "Buy_Amt",
          "type": "uint256"
        },
        {
          "name": "Sell_Amt",
          "type": "uint256"
        }
      ],
      "payable": false,
      "stateMutability": "view",
      "type": "function"
    },
    {
      "constant": true,
      "inputs": [
        {
          "name": "",
          "type": "uint256"
        }
      ],
      "name": "Share",
      "outputs": [
        {
          "name": "id",
          "type": "uint256"
        },
        {
          "name": "Share_Name",
          "type": "string"
        },
        {
          "name": "Share_Code",
          "type": "string"
        },
        {
          "name": "Buy_Amt",
          "type": "uint256"
        },
        {
          "name": "Sell_Amt",
          "type": "uint256"
        }
      ],
      "payable": false,
      "stateMutability": "view",
      "type": "function"
    },
    {
      "inputs": [],
      "payable": false,
      "stateMutability": "nonpayable",
      "type": "constructor"
    },
    {
      "constant": false,
      "inputs": [
        {
          "name": "_shareId",
          "type": "uint256"
        }
      ],
      "name": "buy",
      "outputs": [],
      "payable": false,
      "stateMutability": "nonpayable",
      "type": "function"
    }
  ],
  "bytecode": "0x608060405234801561001057600080fd5b5061009a6040805190810160405280600b81526020017f414343204c494d495445440000000000000000000000000000000000000000008152506040805190810160405280600381526020017f41434300000000000000000000000000000000000000000000000000000000008152506103e86103d46102c3640100000000026401000000009004565b6101236040805190810160405280600f81526020017f4144414e4920504f574552204c544400000000000000000000000000000000008152506040805190810160405280600a81526020017f4144414e49504f574552000000000000000000000000000000000000000000008152506105dc6106406102c3640100000000026401000000009004565b6101ac6040805190810160405280600d81526020017f42414e4b204f4620494e444941000000000000000000000000000000000000008152506040805190810160405280600981526020017f42414e4b494e44494100000000000000000000000000000000000000000000008152506107d06107bc6102c3640100000000026401000000009004565b6102356040805190810160405280600e81526020017f434f414c20494e444941204c54440000000000000000000000000000000000008152506040805190810160405280600981526020017f434f414c494e444941000000000000000000000000000000000000000000000081525061070861070d6102c3640100000000026401000000009004565b6102be6040805190810160405280600781526020017f495443204c5444000000000000000000000000000000000000000000000000008152506040805190810160405280600381526020017f495443000000000000000000000000000000000000000000000000000000000081525061057d6105796102c3640100000000026401000000009004565b610419565b60026000815480929190600101919050555060a0604051908101604052806002548152602001858152602001848152602001838152602001828152506000806002548152602001908152602001600020600082015181600001556020820151816001019080519060200190610339929190610374565b506040820151816002019080519060200190610356929190610374565b50606082015181600301556080820151816004015590505050505050565b828054600181600116156101000203166002900490600052602060002090601f016020900481019282601f106103b557805160ff19168380011785556103e3565b828001600101855582156103e3579182015b828111156103e25782518255916020019190600101906103c7565b5b5090506103f091906103f4565b5090565b61041691905b808211156104125760008160009055506001016103fa565b5090565b90565b6107a5806104286000396000f300608060405260043610610062576000357c0100000000000000000000000000000000000000000000000000000000900463ffffffff16806393a8333e1461006757806397a993aa14610092578063d96a094a146101cf578063ffef8f88146101fc575b600080fd5b34801561007357600080fd5b5061007c610323565b6040518082815260200191505060405180910390f35b34801561009e57600080fd5b506100d3600480360381019080803573ffffffffffffffffffffffffffffffffffffffff169060200190929190505050610329565b604051808681526020018060200180602001858152602001848152602001838103835287818151815260200191508051906020019080838360005b8381101561012957808201518184015260208101905061010e565b50505050905090810190601f1680156101565780820380516001836020036101000a031916815260200191505b50838103825286818151815260200191508051906020019080838360005b8381101561018f578082015181840152602081019050610174565b50505050905090810190601f1680156101bc5780820380516001836020036101000a031916815260200191505b5097505050505050505060405180910390f35b3480156101db57600080fd5b506101fa6004803603810190808035906020019092919050505061048f565b005b34801561020857600080fd5b5061022760048036038101908080359060200190929190505050610567565b604051808681526020018060200180602001858152602001848152602001838103835287818151815260200191508051906020019080838360005b8381101561027d578082015181840152602081019050610262565b50505050905090810190601f1680156102aa5780820380516001836020036101000a031916815260200191505b50838103825286818151815260200191508051906020019080838360005b838110156102e35780820151818401526020810190506102c8565b50505050905090810190601f1680156103105780820380516001836020036101000a031916815260200191505b5097505050505050505060405180910390f35b60025481565b6001602052806000526040600020600091509050806000015490806001018054600181600116156101000203166002900480601f0160208091040260200160405190810160405280929190818152602001828054600181600116156101000203166002900480156103db5780601f106103b0576101008083540402835291602001916103db565b820191906000526020600020905b8154815290600101906020018083116103be57829003601f168201915b505050505090806002018054600181600116156101000203166002900480601f0160208091040260200160405190810160405280929190818152602001828054600181600116156101000203166002900480156104795780601f1061044e57610100808354040283529160200191610479565b820191906000526020600020905b81548152906001019060200180831161045c57829003601f168201915b5050505050908060030154908060040154905085565b600080828152602001908152602001600020600160003373ffffffffffffffffffffffffffffffffffffffff1673ffffffffffffffffffffffffffffffffffffffff16815260200190815260200160002060008201548160000155600182018160010190805460018160011615610100020316600290046105119291906106cd565b50600282018160020190805460018160011615610100020316600290046105399291906106cd565b5060038201548160030155600482015481600401559050506000808281526020019081526020016000205050565b6000602052806000526040600020600091509050806000015490806001018054600181600116156101000203166002900480601f0160208091040260200160405190810160405280929190818152602001828054600181600116156101000203166002900480156106195780601f106105ee57610100808354040283529160200191610619565b820191906000526020600020905b8154815290600101906020018083116105fc57829003601f168201915b505050505090806002018054600181600116156101000203166002900480601f0160208091040260200160405190810160405280929190818152602001828054600181600116156101000203166002900480156106b75780601f1061068c576101008083540402835291602001916106b7565b820191906000526020600020905b81548152906001019060200180831161069a57829003601f168201915b5050505050908060030154908060040154905085565b828054600181600116156101000203166002900490600052602060002090601f016020900481019282601f106107065780548555610743565b8280016001018555821561074357600052602060002091601f016020900482015b82811115610742578254825591600101919060010190610727565b5b5090506107509190610754565b5090565b61077691905b8082111561077257600081600090555060010161075a565b5090565b905600a165627a7a72305820de4f0583e3599b48072bdfb361611a2e4f5b4e9c97c09584848e2d16f127258a0029",
  "source": "pragma solidity ^0.4.24;\r\n\r\ncontract Shares {\r\n\t//Model Shares\r\n\tstruct Shares{\r\n\t\tuint id;\r\n\t \tstring  Share_Name;\r\n\t\tstring  Share_Code;\r\n\t\tuint  Buy_Amt;\r\n\t\tuint  Sell_Amt;\r\n\t}\r\n\t//Store Shares\r\n\tmapping(uint => Shares) public Share;\r\n\tmapping(address => Shares) public buyers;\r\n\r\n\tuint public Count;\r\n\t//Buy Shares\r\n\t//Sell Shares\r\n\t//Fetch Shares\r\n\t//Store User Shares\r\n\tconstructor() public {\r\n\t\taddShares(\"ACC LIMITED\",\"ACC\",1000,980);\r\n\t\taddShares(\"ADANI POWER LTD\",\"ADANIPOWER\",1500,1600);\r\n\t\taddShares(\"BANK OF INDIA\",\"BANKINDIA\",2000,1980);\r\n\t\taddShares(\"COAL INDIA LTD\",\"COALINDIA\",1800,1805);\r\n\t\taddShares(\"ITC LTD\",\"ITC\",1405,1401);\r\n\t\t// buy(1);\r\n\t\t// buy(2);\r\n\t\t// buy(3);\r\n\t\t// buy(4);\r\n\t\t// buy(5);\r\n\t}\r\n\r\n\tfunction addShares (string _name,string _code,uint _bamt,uint _samt) private{\r\n\t\tCount ++;\r\n\t\tShare[Count] = Shares(Count, _name, _code,_bamt,_samt);\r\n\t}\r\n\t// string myArray[];\r\n\t// function buy(uint _amt) private return (string[]){\r\n\t//    myArray.push(string(_amt));\r\n\t//    myArray.push(msg.sender); \r\n\t//    return myArray;\r\n\t// }\r\n\t// function buy(uint _amt) public {\r\n\t// \treturn _amt;\r\n\t// }\r\n\tfunction buy(uint _shareId) public {\r\n\t\tbuyers[msg.sender] = Share[_shareId];\r\n\t\tShare[_shareId].Buy_Amt;\r\n\t}\r\n    // function buy(uint _userid) private{\r\n    // \t//record that user has bought the share\r\n    // \tuint a=Share[_userid].id;\r\n    // \tstring b=Share[_userid].Share_Name;\r\n    // \tstring c=Share[_userid].Share_Code;\r\n    // \tuint d=Share[_userid].Buy_Amt;\r\n    // \tuint e=Share[_userid].Sell_Amt;\r\n    // \tBuy[_userid] = Shares(a,b,c,d,e);\r\n    // }\r\n\r\n}",
  "sourcePath": "C:\\Users\\PRIYAM SHAH\\Blockchain\\HashItOut\\contracts\\Shares.sol",
  "compiler": {
    "name": "solc",
    "version": "0.4.24+commit.e67f0147.Emscripten.clang"
  },
  "schemaVersion": "2.0.1",
  "updatedAt": "2018-09-09T00:46:24.807Z"
}