{
  "contractName": "Shares",
  "abi": [
    {
      "constant": true,
      "inputs": [],
      "name": "Count",
      "outputs": [
        {
          "name": "",
          "type": "uint256"
        }
      ],
      "payable": false,
      "stateMutability": "view",
      "type": "function"
    },
    {
      "constant": true,
      "inputs": [
        {
          "name": "",
          "type": "uint256"
        }
      ],
      "name": "Share",
      "outputs": [
        {
          "name": "id",
          "type": "uint256"
        },
        {
          "name": "Share_Name",
          "type": "string"
        },
        {
          "name": "Share_Code",
          "type": "string"
        },
        {
          "name": "Buy_Amt",
          "type": "uint256"
        },
        {
          "name": "Sell_Amt",
          "type": "uint256"
        }
      ],
      "payable": false,
      "stateMutability": "view",
      "type": "function"
    },
    {
      "inputs": [],
      "payable": false,
      "stateMutability": "nonpayable",
      "type": "constructor"
    }
  ],
  "bytecode": "0x608060405234801561001057600080fd5b5061009a6040805190810160405280600b81526020017f414343204c494d495445440000000000000000000000000000000000000000008152506040805190810160405280600381526020017f41434300000000000000000000000000000000000000000000000000000000008152506103e86103d46102c3640100000000026401000000009004565b6101236040805190810160405280600f81526020017f4144414e4920504f574552204c544400000000000000000000000000000000008152506040805190810160405280600a81526020017f4144414e49504f574552000000000000000000000000000000000000000000008152506105dc6106406102c3640100000000026401000000009004565b6101ac6040805190810160405280600d81526020017f42414e4b204f4620494e444941000000000000000000000000000000000000008152506040805190810160405280600981526020017f42414e4b494e44494100000000000000000000000000000000000000000000008152506107d06107bc6102c3640100000000026401000000009004565b6102356040805190810160405280600e81526020017f434f414c20494e444941204c54440000000000000000000000000000000000008152506040805190810160405280600981526020017f434f414c494e444941000000000000000000000000000000000000000000000081525061070861070d6102c3640100000000026401000000009004565b6102be6040805190810160405280600781526020017f495443204c5444000000000000000000000000000000000000000000000000008152506040805190810160405280600381526020017f495443000000000000000000000000000000000000000000000000000000000081525061057d6105796102c3640100000000026401000000009004565b610419565b60016000815480929190600101919050555060a0604051908101604052806001548152602001858152602001848152602001838152602001828152506000806001548152602001908152602001600020600082015181600001556020820151816001019080519060200190610339929190610374565b506040820151816002019080519060200190610356929190610374565b50606082015181600301556080820151816004015590505050505050565b828054600181600116156101000203166002900490600052602060002090601f016020900481019282601f106103b557805160ff19168380011785556103e3565b828001600101855582156103e3579182015b828111156103e25782518255916020019190600101906103c7565b5b5090506103f091906103f4565b5090565b61041691905b808211156104125760008160009055506001016103fa565b5090565b90565b61033b806104286000396000f30060806040526004361061004c576000357c0100000000000000000000000000000000000000000000000000000000900463ffffffff16806393a8333e14610051578063ffef8f881461007c575b600080fd5b34801561005d57600080fd5b506100666101a3565b6040518082815260200191505060405180910390f35b34801561008857600080fd5b506100a7600480360381019080803590602001909291905050506101a9565b604051808681526020018060200180602001858152602001848152602001838103835287818151815260200191508051906020019080838360005b838110156100fd5780820151818401526020810190506100e2565b50505050905090810190601f16801561012a5780820380516001836020036101000a031916815260200191505b50838103825286818151815260200191508051906020019080838360005b83811015610163578082015181840152602081019050610148565b50505050905090810190601f1680156101905780820380516001836020036101000a031916815260200191505b5097505050505050505060405180910390f35b60015481565b6000602052806000526040600020600091509050806000015490806001018054600181600116156101000203166002900480601f01602080910402602001604051908101604052809291908181526020018280546001816001161561010002031660029004801561025b5780601f106102305761010080835404028352916020019161025b565b820191906000526020600020905b81548152906001019060200180831161023e57829003601f168201915b505050505090806002018054600181600116156101000203166002900480601f0160208091040260200160405190810160405280929190818152602001828054600181600116156101000203166002900480156102f95780601f106102ce576101008083540402835291602001916102f9565b820191906000526020600020905b8154815290600101906020018083116102dc57829003601f168201915b50505050509080600301549080600401549050855600a165627a7a72305820a74597301838b1693006e50482068217f377a1dc77c38e11416c0957ce7fecd20029",
  "source": "pragma solidity ^0.4.24;\r\n\r\ncontract Shares {\r\n\t//Model Shares\r\n\tstruct Shares{\r\n\t\tuint id;\r\n\t \tstring  Share_Name;\r\n\t\tstring  Share_Code;\r\n\t\tuint  Buy_Amt;\r\n\t\tuint  Sell_Amt;\r\n\t}\r\n\t//Store Shares\r\n\tmapping(uint => Shares) public Share;\r\n\tuint public Count;\r\n\t//Buy Shares\r\n\t//Sell Shares\r\n\t//Fetch Shares\r\n\t//Store User Shares\r\n\tconstructor() public {\r\n\t\taddShares(\"ACC LIMITED\",\"ACC\",1000,980);\r\n\t\taddShares(\"ADANI POWER LTD\",\"ADANIPOWER\",1500,1600);\r\n\t\taddShares(\"BANK OF INDIA\",\"BANKINDIA\",2000,1980);\r\n\t\taddShares(\"COAL INDIA LTD\",\"COALINDIA\",1800,1805);\r\n\t\taddShares(\"ITC LTD\",\"ITC\",1405,1401);\r\n\t}\r\n\r\n\tfunction addShares (string _name,string _code,uint _bamt,uint _samt) private{\r\n\t\tCount ++;\r\n\t\tShare[Count] = Shares(Count, _name, _code,_bamt,_samt);\r\n\t}\r\n\r\n\r\n}",
  "sourcePath": "C:\\Users\\PRIYAM SHAH\\Blockchain\\HashItOut\\contracts\\Shares.sol",
  "compiler": {
    "name": "solc",
    "version": "0.4.24+commit.e67f0147.Emscripten.clang"
  },
  "schemaVersion": "2.0.1",
  "updatedAt": "2018-09-08T16:53:12.282Z"
}